{
  "address": "0x7fC7861D7a35A1a951241d3d950a588176388Fd9",
  "abi": [
    {
      "inputs": [
        {
          "internalType": "address",
          "name": "_messageBus",
          "type": "address"
        },
        {
          "internalType": "address",
          "name": "_marketNG",
          "type": "address"
        }
      ],
      "stateMutability": "nonpayable",
      "type": "constructor"
    },
    {
      "anonymous": false,
      "inputs": [
        {
          "indexed": false,
          "internalType": "address",
          "name": "oldMarketNG",
          "type": "address"
        },
        {
          "indexed": false,
          "internalType": "address",
          "name": "newMarketNG",
          "type": "address"
        }
      ],
      "name": "MarketNGUpdated",
      "type": "event"
    },
    {
      "anonymous": false,
      "inputs": [
        {
          "indexed": false,
          "internalType": "address",
          "name": "messageBus",
          "type": "address"
        }
      ],
      "name": "MessageBusUpdated",
      "type": "event"
    },
    {
      "anonymous": false,
      "inputs": [
        {
          "indexed": true,
          "internalType": "address",
          "name": "previousOwner",
          "type": "address"
        },
        {
          "indexed": true,
          "internalType": "address",
          "name": "newOwner",
          "type": "address"
        }
      ],
      "name": "OwnershipTransferred",
      "type": "event"
    },
    {
      "anonymous": false,
      "inputs": [
        {
          "indexed": false,
          "internalType": "uint256",
          "name": "id",
          "type": "uint256"
        }
      ],
      "name": "PurchaseCompleted",
      "type": "event"
    },
    {
      "anonymous": false,
      "inputs": [
        {
          "indexed": false,
          "internalType": "uint64",
          "name": "chainId",
          "type": "uint64"
        },
        {
          "indexed": false,
          "internalType": "uint256",
          "name": "id",
          "type": "uint256"
        },
        {
          "indexed": false,
          "internalType": "address",
          "name": "token",
          "type": "address"
        },
        {
          "indexed": false,
          "internalType": "uint256",
          "name": "amount",
          "type": "uint256"
        }
      ],
      "name": "Refunded",
      "type": "event"
    },
    {
      "inputs": [],
      "name": "TOKEN_1155",
      "outputs": [
        {
          "internalType": "uint8",
          "name": "",
          "type": "uint8"
        }
      ],
      "stateMutability": "view",
      "type": "function"
    },
    {
      "inputs": [],
      "name": "TOKEN_721",
      "outputs": [
        {
          "internalType": "uint8",
          "name": "",
          "type": "uint8"
        }
      ],
      "stateMutability": "view",
      "type": "function"
    },
    {
      "inputs": [],
      "name": "TOKEN_MINT",
      "outputs": [
        {
          "internalType": "uint8",
          "name": "",
          "type": "uint8"
        }
      ],
      "stateMutability": "view",
      "type": "function"
    },
    {
      "inputs": [
        {
          "internalType": "bytes",
          "name": "_sender",
          "type": "bytes"
        },
        {
          "internalType": "uint64",
          "name": "_srcChainId",
          "type": "uint64"
        },
        {
          "internalType": "bytes",
          "name": "_message",
          "type": "bytes"
        },
        {
          "internalType": "address",
          "name": "_executor",
          "type": "address"
        }
      ],
      "name": "executeMessage",
      "outputs": [
        {
          "internalType": "enum IMessageReceiverApp.ExecutionStatus",
          "name": "",
          "type": "uint8"
        }
      ],
      "stateMutability": "payable",
      "type": "function"
    },
    {
      "inputs": [
        {
          "internalType": "address",
          "name": "_sender",
          "type": "address"
        },
        {
          "internalType": "uint64",
          "name": "_srcChainId",
          "type": "uint64"
        },
        {
          "internalType": "bytes",
          "name": "_message",
          "type": "bytes"
        },
        {
          "internalType": "address",
          "name": "_executor",
          "type": "address"
        }
      ],
      "name": "executeMessage",
      "outputs": [
        {
          "internalType": "enum IMessageReceiverApp.ExecutionStatus",
          "name": "",
          "type": "uint8"
        }
      ],
      "stateMutability": "payable",
      "type": "function"
    },
    {
      "inputs": [
        {
          "internalType": "address",
          "name": "",
          "type": "address"
        },
        {
          "internalType": "address",
          "name": "dstToken",
          "type": "address"
        },
        {
          "internalType": "uint256",
          "name": "amount",
          "type": "uint256"
        },
        {
          "internalType": "uint64",
          "name": "",
          "type": "uint64"
        },
        {
          "internalType": "bytes",
          "name": "message",
          "type": "bytes"
        },
        {
          "internalType": "address",
          "name": "",
          "type": "address"
        }
      ],
      "name": "executeMessageWithTransfer",
      "outputs": [
        {
          "internalType": "enum IMessageReceiverApp.ExecutionStatus",
          "name": "",
          "type": "uint8"
        }
      ],
      "stateMutability": "payable",
      "type": "function"
    },
    {
      "inputs": [
        {
          "internalType": "address",
          "name": "",
          "type": "address"
        },
        {
          "internalType": "address",
          "name": "token",
          "type": "address"
        },
        {
          "internalType": "uint256",
          "name": "amount",
          "type": "uint256"
        },
        {
          "internalType": "uint64",
          "name": "",
          "type": "uint64"
        },
        {
          "internalType": "bytes",
          "name": "message",
          "type": "bytes"
        },
        {
          "internalType": "address",
          "name": "",
          "type": "address"
        }
      ],
      "name": "executeMessageWithTransferFallback",
      "outputs": [
        {
          "internalType": "enum IMessageReceiverApp.ExecutionStatus",
          "name": "",
          "type": "uint8"
        }
      ],
      "stateMutability": "payable",
      "type": "function"
    },
    {
      "inputs": [
        {
          "internalType": "address",
          "name": "token",
          "type": "address"
        },
        {
          "internalType": "uint256",
          "name": "amount",
          "type": "uint256"
        },
        {
          "internalType": "bytes",
          "name": "message",
          "type": "bytes"
        },
        {
          "internalType": "address",
          "name": "",
          "type": "address"
        }
      ],
      "name": "executeMessageWithTransferRefund",
      "outputs": [
        {
          "internalType": "enum IMessageReceiverApp.ExecutionStatus",
          "name": "",
          "type": "uint8"
        }
      ],
      "stateMutability": "payable",
      "type": "function"
    },
    {
      "inputs": [],
      "name": "marketNG",
      "outputs": [
        {
          "internalType": "address",
          "name": "",
          "type": "address"
        }
      ],
      "stateMutability": "view",
      "type": "function"
    },
    {
      "inputs": [],
      "name": "messageBus",
      "outputs": [
        {
          "internalType": "address",
          "name": "",
          "type": "address"
        }
      ],
      "stateMutability": "view",
      "type": "function"
    },
    {
      "inputs": [
        {
          "internalType": "address",
          "name": "",
          "type": "address"
        },
        {
          "internalType": "address",
          "name": "",
          "type": "address"
        },
        {
          "internalType": "uint256",
          "name": "",
          "type": "uint256"
        },
        {
          "internalType": "bytes",
          "name": "",
          "type": "bytes"
        }
      ],
      "name": "onERC721Received",
      "outputs": [
        {
          "internalType": "bytes4",
          "name": "",
          "type": "bytes4"
        }
      ],
      "stateMutability": "pure",
      "type": "function"
    },
    {
      "inputs": [],
      "name": "owner",
      "outputs": [
        {
          "internalType": "address",
          "name": "",
          "type": "address"
        }
      ],
      "stateMutability": "view",
      "type": "function"
    },
    {
      "inputs": [
        {
          "internalType": "uint64",
          "name": "dstChainId",
          "type": "uint64"
        },
        {
          "internalType": "address",
          "name": "dstCrossChainEndpoint",
          "type": "address"
        },
        {
          "internalType": "address",
          "name": "receiver",
          "type": "address"
        },
        {
          "internalType": "address",
          "name": "srcToken",
          "type": "address"
        },
        {
          "internalType": "uint256",
          "name": "amount",
          "type": "uint256"
        },
        {
          "internalType": "uint32",
          "name": "maxSlippage",
          "type": "uint32"
        },
        {
          "components": [
            {
              "components": [
                {
                  "internalType": "address",
                  "name": "user",
                  "type": "address"
                },
                {
                  "components": [
                    {
                      "internalType": "address",
                      "name": "token",
                      "type": "address"
                    },
                    {
                      "internalType": "uint256",
                      "name": "tokenId",
                      "type": "uint256"
                    },
                    {
                      "internalType": "uint256",
                      "name": "amount",
                      "type": "uint256"
                    },
                    {
                      "internalType": "uint8",
                      "name": "kind",
                      "type": "uint8"
                    },
                    {
                      "internalType": "bytes",
                      "name": "mintData",
                      "type": "bytes"
                    }
                  ],
                  "internalType": "struct IMarketNG.TokenPair[]",
                  "name": "bundle",
                  "type": "tuple[]"
                },
                {
                  "internalType": "contract IERC20",
                  "name": "currency",
                  "type": "address"
                },
                {
                  "internalType": "uint256",
                  "name": "price",
                  "type": "uint256"
                },
                {
                  "internalType": "uint256",
                  "name": "deadline",
                  "type": "uint256"
                },
                {
                  "internalType": "bytes32",
                  "name": "salt",
                  "type": "bytes32"
                },
                {
                  "internalType": "uint8",
                  "name": "kind",
                  "type": "uint8"
                }
              ],
              "internalType": "struct IMarketNG.Intention",
              "name": "intent",
              "type": "tuple"
            },
            {
              "components": [
                {
                  "internalType": "bytes32",
                  "name": "intentionHash",
                  "type": "bytes32"
                },
                {
                  "internalType": "address",
                  "name": "signer",
                  "type": "address"
                },
                {
                  "internalType": "uint256",
                  "name": "txDeadline",
                  "type": "uint256"
                },
                {
                  "internalType": "bytes32",
                  "name": "salt",
                  "type": "bytes32"
                },
                {
                  "internalType": "uint256",
                  "name": "id",
                  "type": "uint256"
                },
                {
                  "internalType": "uint8",
                  "name": "opcode",
                  "type": "uint8"
                },
                {
                  "internalType": "address",
                  "name": "caller",
                  "type": "address"
                },
                {
                  "internalType": "contract IERC20",
                  "name": "currency",
                  "type": "address"
                },
                {
                  "internalType": "uint256",
                  "name": "price",
                  "type": "uint256"
                },
                {
                  "internalType": "uint256",
                  "name": "incentiveRate",
                  "type": "uint256"
                },
                {
                  "components": [
                    {
                      "internalType": "uint256[]",
                      "name": "coupons",
                      "type": "uint256[]"
                    },
                    {
                      "internalType": "uint256",
                      "name": "feeRate",
                      "type": "uint256"
                    },
                    {
                      "internalType": "uint256",
                      "name": "royaltyRate",
                      "type": "uint256"
                    },
                    {
                      "internalType": "uint256",
                      "name": "buyerCashbackRate",
                      "type": "uint256"
                    },
                    {
                      "internalType": "address",
                      "name": "feeAddress",
                      "type": "address"
                    },
                    {
                      "internalType": "address",
                      "name": "royaltyAddress",
                      "type": "address"
                    }
                  ],
                  "internalType": "struct IMarketNG.Settlement",
                  "name": "settlement",
                  "type": "tuple"
                },
                {
                  "components": [
                    {
                      "internalType": "address",
                      "name": "token",
                      "type": "address"
                    },
                    {
                      "internalType": "uint256",
                      "name": "tokenId",
                      "type": "uint256"
                    },
                    {
                      "internalType": "uint256",
                      "name": "amount",
                      "type": "uint256"
                    },
                    {
                      "internalType": "uint8",
                      "name": "kind",
                      "type": "uint8"
                    },
                    {
                      "internalType": "bytes",
                      "name": "mintData",
                      "type": "bytes"
                    }
                  ],
                  "internalType": "struct IMarketNG.TokenPair[]",
                  "name": "bundle",
                  "type": "tuple[]"
                },
                {
                  "internalType": "uint256",
                  "name": "deadline",
                  "type": "uint256"
                }
              ],
              "internalType": "struct IMarketNG.Detail",
              "name": "detail",
              "type": "tuple"
            },
            {
              "internalType": "bytes",
              "name": "sigIntent",
              "type": "bytes"
            },
            {
              "internalType": "bytes",
              "name": "sigDetail",
              "type": "bytes"
            }
          ],
          "internalType": "struct CrossChainEndpoint.Order",
          "name": "order",
          "type": "tuple"
        }
      ],
      "name": "purchase",
      "outputs": [],
      "stateMutability": "payable",
      "type": "function"
    },
    {
      "inputs": [],
      "name": "renounceOwnership",
      "outputs": [],
      "stateMutability": "nonpayable",
      "type": "function"
    },
    {
      "inputs": [
        {
          "internalType": "address",
          "name": "_marketNG",
          "type": "address"
        }
      ],
      "name": "setMarketNG",
      "outputs": [],
      "stateMutability": "nonpayable",
      "type": "function"
    },
    {
      "inputs": [
        {
          "internalType": "address",
          "name": "_messageBus",
          "type": "address"
        }
      ],
      "name": "setMessageBus",
      "outputs": [],
      "stateMutability": "nonpayable",
      "type": "function"
    },
    {
      "inputs": [
        {
          "internalType": "address",
          "name": "newOwner",
          "type": "address"
        }
      ],
      "name": "transferOwnership",
      "outputs": [],
      "stateMutability": "nonpayable",
      "type": "function"
    }
  ],
  "transactionHash": "0xfa56e4c81f9f1b423ce9deb80f85388745f8c0c9588cc5bbb38f16dc7e88837c",
  "args": [
    "0xF25170F86E4291a99a9A560032Fe9948b8BcFBB2",
    "0x0b61C9AD8a968a14F273F68bbc393516983Df785"
  ],
  "numDeployments": 8,
  "solcInputHash": "c2eb86247250c93c3d0d1b4bc6294314",
  "bytecode": "0x60806040523480156200001157600080fd5b5060405162003154380380620031548339810160408190526200003491620000de565b6200003f3362000071565b600180546001600160a01b039384166001600160a01b0319918216179091556002805492909316911617905562000116565b600080546001600160a01b038381166001600160a01b0319831681178455604051919092169283917f8be0079c531659141344cd1fd0a4f28419497f9722a3daafe3b4186f6b6457e09190a35050565b80516001600160a01b0381168114620000d957600080fd5b919050565b60008060408385031215620000f257600080fd5b620000fd83620000c1565b91506200010d60208401620000c1565b90509250929050565b61302e80620001266000396000f3fe60806040526004361061010e5760003560e01c80637cd2bffc116100a5578063a1a227fa11610074578063c477be2011610059578063c477be20146102eb578063f0d250ba14610300578063f2fde38b1461031557600080fd5b8063a1a227fa146102b8578063b9b3c43d146102d857600080fd5b80637cd2bffc1461024d578063853ca41a146102605780638da5cb5b146102875780639c649fdf146102a557600080fd5b8063547cad12116100e1578063547cad12146101cd5780635ab7afc6146101ed5780635f4a9e3214610200578063715018a61461023857600080fd5b8063063ce4e5146101135780630bcb49821461013c57806314f38ce21461014f578063150b7a0214610171575b600080fd5b610126610121366004611c06565b610335565b6040516101339190611cb2565b60405180910390f35b61012661014a366004611cda565b6103a1565b34801561015b57600080fd5b5061016f61016a366004611d4e565b6104a0565b005b34801561017d57600080fd5b5061019c61018c366004611f09565b630a85bd0160e11b949350505050565b6040517fffffffff000000000000000000000000000000000000000000000000000000009091168152602001610133565b3480156101d957600080fd5b5061016f6101e8366004611d4e565b61051e565b6101266101fb366004611f75565b610587565b34801561020c57600080fd5b50600254610220906001600160a01b031681565b6040516001600160a01b039091168152602001610133565b34801561024457600080fd5b5061016f61068b565b61012661025b366004611f75565b61069f565b34801561026c57600080fd5b50610275600081565b60405160ff9091168152602001610133565b34801561029357600080fd5b506000546001600160a01b0316610220565b6101266102b3366004611ff7565b610a4a565b3480156102c457600080fd5b50600154610220906001600160a01b031681565b61016f6102e63660046124b2565b610aa7565b3480156102f757600080fd5b50610275600181565b34801561030c57600080fd5b50610275600281565b34801561032157600080fd5b5061016f610330366004611d4e565b610bf9565b6001546000906001600160a01b031633146103975760405162461bcd60e51b815260206004820152601960248201527f63616c6c6572206973206e6f74206d657373616765206275730000000000000060448201526064015b60405180910390fd5b9695505050505050565b6001546000906001600160a01b031633146103fe5760405162461bcd60e51b815260206004820152601960248201527f63616c6c6572206973206e6f74206d6573736167652062757300000000000000604482015260640161038e565b600061040c8486018661255d565b6020810151909150610429906001600160a01b0389169088610c89565b604080820151602090810151608090810151835167ffffffffffffffff46168152928301526001600160a01b038a1692820192909252606081018890527fd503d3d5e9b37eecdfdfdd869a1654613939b186d6cc324e76a9240d31bd55d3910160405180910390a160019150505b95945050505050565b6104a8610d1e565b600254604080516001600160a01b03928316815291831660208301527f2f38d43651e512ae7b970e97de7d2171700da259f0e3f9890d88883171b41274910160405180910390a16002805473ffffffffffffffffffffffffffffffffffffffff19166001600160a01b0392909216919091179055565b610526610d1e565b6001805473ffffffffffffffffffffffffffffffffffffffff19166001600160a01b0383169081179091556040519081527f3f8223bcd8b3b875473e9f9e14e1ad075451a2b5ffd31591655da9a01516bf5e9060200160405180910390a150565b6001546000906001600160a01b031633146105e45760405162461bcd60e51b815260206004820152601960248201527f63616c6c6572206973206e6f74206d6573736167652062757300000000000000604482015260640161038e565b6000838060200190518101906105fa91906129cd565b8051909150610614906001600160a01b0389169088610c89565b604080820151602090810151608090810151835167ffffffffffffffff46168152928301526001600160a01b038a1692820192909252606081018890527fd503d3d5e9b37eecdfdfdd869a1654613939b186d6cc324e76a9240d31bd55d391015b60405180910390a1506001979650505050505050565b610693610d1e565b61069d6000610d78565b565b6001546000906001600160a01b031633146106fc5760405162461bcd60e51b815260206004820152601960248201527f63616c6c6572206973206e6f74206d6573736167652062757300000000000000604482015260640161038e565b60008380602001905181019061071291906129cd565b905080604001516020015160e001516001600160a01b0316876001600160a01b0316146107815760405162461bcd60e51b815260206004820152601260248201527f696e76616c696420746f6b656e20747970650000000000000000000000000000604482015260640161038e565b60025460408201516020015161010081015160e0909101516107b1926001600160a01b0391821692911690610dd5565b6002546040808301518051602082015182840151606090930151935163ba84775960e01b81526001600160a01b039095169463ba847759946107f69491600401612daa565b600060405180830381600087803b15801561081057600080fd5b505af1158015610824573d6000803e3d6000fd5b5050505060005b60408201515160200151518110156109bb57600082604001516000015160200151828151811061085d5761085d612df7565b60200260200101519050600160ff16816060015160ff16036108f157805183516020830151604051632142170760e11b81523060048201526001600160a01b03928316602482015260448101919091529116906342842e0e906064015b600060405180830381600087803b1580156108d457600080fd5b505af11580156108e8573d6000803e3d6000fd5b505050506109a8565b600260ff16816060015160ff1603610960578051835160208301516040808501519051637921219560e11b81523060048201526001600160a01b0393841660248201526044810192909252606482015260a06084820152600060a482015291169063f242432a9060c4016108ba565b60405162461bcd60e51b815260206004820152601160248201527f756e737570706f7274656420746f6b656e000000000000000000000000000000604482015260640161038e565b50806109b381612e23565b91505061082b565b508060400151602001516101000151861115610a0d5780516040820151602001516101000151610a0d91906109f09089612e3c565b60408401516020015160e001516001600160a01b03169190610c89565b7f5d2e146c95f4ec58ed7e1dc5cc4f32ff5ffdd304fdd34cfd84a930d39f1f5e728160400151602001516080015160405161067591815260200190565b6001546000906001600160a01b031633146104975760405162461bcd60e51b815260206004820152601960248201527f63616c6c6572206973206e6f74206d6573736167652062757300000000000000604482015260640161038e565b6001600260148282829054906101000a900467ffffffffffffffff16610acd9190612e55565b92506101000a81548167ffffffffffffffff021916908367ffffffffffffffff16021790555080602001516101000151831015610b4c5760405162461bcd60e51b815260206004820152600e60248201527f696e76616c696420616d6f756e74000000000000000000000000000000000000604482015260640161038e565b610b616001600160a01b038516333086610ef1565b60006040518060600160405280876001600160a01b03168152602001336001600160a01b0316815260200183815250604051602001610ba09190612e7d565b6040516020818303038152906040529050610bee8786868b600260149054906101000a900467ffffffffffffffff16888760018060009054906101000a90046001600160a01b031634610f2f565b505050505050505050565b610c01610d1e565b6001600160a01b038116610c7d5760405162461bcd60e51b815260206004820152602660248201527f4f776e61626c653a206e6577206f776e657220697320746865207a65726f206160448201527f6464726573730000000000000000000000000000000000000000000000000000606482015260840161038e565b610c8681610d78565b50565b6040516001600160a01b038316602482015260448101829052610d1990849063a9059cbb60e01b906064015b60408051601f198184030181529190526020810180517bffffffffffffffffffffffffffffffffffffffffffffffffffffffff167fffffffff0000000000000000000000000000000000000000000000000000000090931692909217909152610fc8565b505050565b6000546001600160a01b0316331461069d5760405162461bcd60e51b815260206004820181905260248201527f4f776e61626c653a2063616c6c6572206973206e6f7420746865206f776e6572604482015260640161038e565b600080546001600160a01b0383811673ffffffffffffffffffffffffffffffffffffffff19831681178455604051919092169283917f8be0079c531659141344cd1fd0a4f28419497f9722a3daafe3b4186f6b6457e09190a35050565b801580610e4f5750604051636eb1769f60e11b81523060048201526001600160a01b03838116602483015284169063dd62ed3e90604401602060405180830381865afa158015610e29573d6000803e3d6000fd5b505050506040513d601f19601f82011682018060405250810190610e4d9190612f1c565b155b610ec15760405162461bcd60e51b815260206004820152603660248201527f5361666545524332303a20617070726f76652066726f6d206e6f6e2d7a65726f60448201527f20746f206e6f6e2d7a65726f20616c6c6f77616e636500000000000000000000606482015260840161038e565b6040516001600160a01b038316602482015260448101829052610d1990849063095ea7b360e01b90606401610cb5565b6040516001600160a01b0380851660248301528316604482015260648101829052610f299085906323b872dd60e01b90608401610cb5565b50505050565b6000806000610f448d8d8d8d8d8d8c8c6110ad565b8851919350915015610fb857846001600160a01b0316634289fbb3858f8d85878d6040518763ffffffff1660e01b8152600401610f85959493929190612f35565b6000604051808303818588803b158015610f9e57600080fd5b505af1158015610fb2573d6000803e3d6000fd5b50505050505b509b9a5050505050505050505050565b600061101d826040518060400160405280602081526020017f5361666545524332303a206c6f772d6c6576656c2063616c6c206661696c6564815250856001600160a01b031661183e9092919063ffffffff16565b805190915015610d19578080602001905181019061103b9190612f77565b610d195760405162461bcd60e51b815260206004820152602a60248201527f5361666545524332303a204552433230206f7065726174696f6e20646964206e60448201527f6f74207375636365656400000000000000000000000000000000000000000000606482015260840161038e565b60008060018460068111156110c4576110c4611c9c565b036111e357826001600160a01b03166382980dc46040518163ffffffff1660e01b8152600401602060405180830381865afa158015611107573d6000803e3d6000fd5b505050506040513d601f19601f8201168201806040525081019061112b9190612f99565b90506111416001600160a01b038a16828a611857565b60405163a5977fbb60e01b81526001600160a01b038b811660048301528a81166024830152604482018a905267ffffffffffffffff808a1660648401528816608483015263ffffffff871660a483015282169063a5977fbb9060c401600060405180830381600087803b1580156111b757600080fd5b505af11580156111cb573d6000803e3d6000fd5b505050506111dc8a8a8a8a8a611909565b9150611831565b60028460068111156111f7576111f7611c9c565b0361130357826001600160a01b031663d8257d176040518163ffffffff1660e01b8152600401602060405180830381865afa15801561123a573d6000803e3d6000fd5b505050506040513d601f19601f8201168201806040525081019061125e9190612f99565b90506112746001600160a01b038a16828a611857565b6040516308d18d8960e21b81526001600160a01b038a81166004830152602482018a905267ffffffffffffffff808a1660448401528c821660648401528816608483015282169063234636249060a401600060405180830381600087803b1580156112de57600080fd5b505af11580156112f2573d6000803e3d6000fd5b505050506111dc8a8a8a8a8a611991565b600384600681111561131757611317611c9c565b0361149e57826001600160a01b031663dfa2dbaf6040518163ffffffff1660e01b8152600401602060405180830381865afa15801561135a573d6000803e3d6000fd5b505050506040513d601f19601f8201168201806040525081019061137e9190612f99565b90506113946001600160a01b038a16828a611857565b604051636f3c863f60e11b81526001600160a01b038a81166004830152602482018a90528b8116604483015267ffffffffffffffff8816606483015282169063de790c7e90608401600060405180830381600087803b1580156113f657600080fd5b505af115801561140a573d6000803e3d6000fd5b50611424925050506001600160a01b038a16826000610dd5565b604080516bffffffffffffffffffffffff1930606090811b82166020808501919091528d821b83166034850152604884018d9052908e901b90911660688301526001600160c01b031960c08a811b8216607c85015246901b1660848301528251808303606c018152608c90920190925280519101206111dc565b60048460068111156114b2576114b2611c9c565b036115c257826001600160a01b031663c66a9c5a6040518163ffffffff1660e01b8152600401602060405180830381865afa1580156114f5573d6000803e3d6000fd5b505050506040513d601f19601f820116820180604052508101906115199190612f99565b905061152f6001600160a01b038a16828a611857565b6040516308d18d8960e21b81526001600160a01b038a81166004830152602482018a905267ffffffffffffffff808a1660448401528c821660648401528816608483015282169063234636249060a4016020604051808303816000875af115801561159e573d6000803e3d6000fd5b505050506040513d601f19601f820116820180604052508101906111dc9190612f1c565b60058460068111156115d6576115d6611c9c565b0361170357826001600160a01b03166395b12c276040518163ffffffff1660e01b8152600401602060405180830381865afa158015611619573d6000803e3d6000fd5b505050506040513d601f19601f8201168201806040525081019061163d9190612f99565b90506116536001600160a01b038a16828a611857565b60405163a002930160e01b81526001600160a01b038a81166004830152602482018a905267ffffffffffffffff808a1660448401528c821660648401528816608483015282169063a00293019060a4015b6020604051808303816000875af11580156116c3573d6000803e3d6000fd5b505050506040513d601f19601f820116820180604052508101906116e79190612f1c565b91506116fe6001600160a01b038a16826000610dd5565b611831565b600684600681111561171757611717611c9c565b036117e957826001600160a01b03166395b12c276040518163ffffffff1660e01b8152600401602060405180830381865afa15801561175a573d6000803e3d6000fd5b505050506040513d601f19601f8201168201806040525081019061177e9190612f99565b90506117946001600160a01b038a16828a611857565b604051639e422c3360e01b81526001600160a01b038a81166004830152602482018a905267ffffffffffffffff808a1660448401528c8216606484015288166084830152821690639e422c339060a4016116a4565b60405162461bcd60e51b815260206004820152601960248201527f6272696467652074797065206e6f7420737570706f7274656400000000000000604482015260640161038e565b9850989650505050505050565b606061184d84846000856119ff565b90505b9392505050565b604051636eb1769f60e11b81523060048201526001600160a01b038381166024830152600091839186169063dd62ed3e90604401602060405180830381865afa1580156118a8573d6000803e3d6000fd5b505050506040513d601f19601f820116820180604052508101906118cc9190612f1c565b6118d69190612fb6565b6040516001600160a01b038516602482015260448101829052909150610f2990859063095ea7b360e01b90606401610cb5565b6040516bffffffffffffffffffffffff1930606090811b8216602084015287811b8216603484015286901b166048820152605c81018490526001600160c01b031960c084811b8216607c84015283811b8216608484015246901b16608c8201526000906094015b60405160208183030381529060405280519060200120905095945050505050565b6040516bffffffffffffffffffffffff1930606090811b8216602084015286811b82166034840152604883018690526001600160c01b031960c086811b821660688601529189901b909216607084015283811b8216608484015246901b16608c820152600090609401611970565b606082471015611a775760405162461bcd60e51b815260206004820152602660248201527f416464726573733a20696e73756666696369656e742062616c616e636520666f60448201527f722063616c6c0000000000000000000000000000000000000000000000000000606482015260840161038e565b6001600160a01b0385163b611ace5760405162461bcd60e51b815260206004820152601d60248201527f416464726573733a2063616c6c20746f206e6f6e2d636f6e7472616374000000604482015260640161038e565b600080866001600160a01b03168587604051611aea9190612fc9565b60006040518083038185875af1925050503d8060008114611b27576040519150601f19603f3d011682016040523d82523d6000602084013e611b2c565b606091505b5091509150611b3c828286611b47565b979650505050505050565b60608315611b56575081611850565b825115611b665782518084602001fd5b8160405162461bcd60e51b815260040161038e9190612fe5565b60008083601f840112611b9257600080fd5b50813567ffffffffffffffff811115611baa57600080fd5b602083019150836020828501011115611bc257600080fd5b9250929050565b803567ffffffffffffffff81168114611be157600080fd5b919050565b6001600160a01b0381168114610c8657600080fd5b8035611be181611be6565b60008060008060008060808789031215611c1f57600080fd5b863567ffffffffffffffff80821115611c3757600080fd5b611c438a838b01611b80565b9098509650869150611c5760208a01611bc9565b95506040890135915080821115611c6d57600080fd5b50611c7a89828a01611b80565b9094509250506060870135611c8e81611be6565b809150509295509295509295565b634e487b7160e01b600052602160045260246000fd5b6020810160038310611cd457634e487b7160e01b600052602160045260246000fd5b91905290565b600080600080600060808688031215611cf257600080fd5b8535611cfd81611be6565b945060208601359350604086013567ffffffffffffffff811115611d2057600080fd5b611d2c88828901611b80565b9094509250506060860135611d4081611be6565b809150509295509295909350565b600060208284031215611d6057600080fd5b813561185081611be6565b634e487b7160e01b600052604160045260246000fd5b60405160a0810167ffffffffffffffff81118282101715611da457611da4611d6b565b60405290565b60405160e0810167ffffffffffffffff81118282101715611da457611da4611d6b565b60405160c0810167ffffffffffffffff81118282101715611da457611da4611d6b565b6040516101a0810167ffffffffffffffff81118282101715611da457611da4611d6b565b6040516080810167ffffffffffffffff81118282101715611da457611da4611d6b565b6040516060810167ffffffffffffffff81118282101715611da457611da4611d6b565b604051601f8201601f1916810167ffffffffffffffff81118282101715611e8357611e83611d6b565b604052919050565b600067ffffffffffffffff821115611ea557611ea5611d6b565b50601f01601f191660200190565b600082601f830112611ec457600080fd5b8135611ed7611ed282611e8b565b611e5a565b818152846020838601011115611eec57600080fd5b816020850160208301376000918101602001919091529392505050565b60008060008060808587031215611f1f57600080fd5b8435611f2a81611be6565b93506020850135611f3a81611be6565b925060408501359150606085013567ffffffffffffffff811115611f5d57600080fd5b611f6987828801611eb3565b91505092959194509250565b60008060008060008060c08789031215611f8e57600080fd5b8635611f9981611be6565b95506020870135611fa981611be6565b945060408701359350611fbe60608801611bc9565b9250608087013567ffffffffffffffff811115611fda57600080fd5b611fe689828a01611eb3565b92505060a0870135611c8e81611be6565b60008060008060006080868803121561200f57600080fd5b853561201a81611be6565b945061202860208701611bc9565b9350604086013567ffffffffffffffff811115611d2057600080fd5b600067ffffffffffffffff82111561205e5761205e611d6b565b5060051b60200190565b60ff81168114610c8657600080fd5b8035611be181612068565b600082601f83011261209357600080fd5b813560206120a3611ed283612044565b82815260059290921b840181019181810190868411156120c257600080fd5b8286015b8481101561217857803567ffffffffffffffff808211156120e75760008081fd5b9088019060a0828b03601f19018113156121015760008081fd5b612109611d81565b8784013561211681611be6565b808252506040808501358983015260608086013582840152608091508186013561213f81612068565b908301529184013591838311156121565760008081fd5b6121648d8a85880101611eb3565b9082015286525050509183019183016120c6565b509695505050505050565b600060e0828403121561219557600080fd5b61219d611daa565b90506121a882611bfb565b8152602082013567ffffffffffffffff8111156121c457600080fd5b6121d084828501612082565b6020830152506121e260408301611bfb565b6040820152606082013560608201526080820135608082015260a082013560a082015261221160c08301612077565b60c082015292915050565b600060c0828403121561222e57600080fd5b612236611dcd565b9050813567ffffffffffffffff81111561224f57600080fd5b8201601f8101841361226057600080fd5b80356020612270611ed283612044565b82815260059290921b8301810191818101908784111561228f57600080fd5b938201935b838510156122ad57843582529382019390820190612294565b8552508481013590840152505060408083013590820152606080830135908201526122da60808301611bfb565b60808201526122eb60a08301611bfb565b60a082015292915050565b60006101a0828403121561230957600080fd5b612311611df0565b90508135815261232360208301611bfb565b602082015260408201356040820152606082013560608201526080820135608082015261235260a08301612077565b60a082015261236360c08301611bfb565b60c082015261237460e08301611bfb565b60e0820152610100828101359082015261012080830135908201526101408083013567ffffffffffffffff808211156123ac57600080fd5b6123b88683870161221c565b838501526101609250828501359150808211156123d457600080fd5b506123e185828601612082565b82840152505061018080830135818301525092915050565b60006080828403121561240b57600080fd5b612413611e14565b9050813567ffffffffffffffff8082111561242d57600080fd5b61243985838601612183565b8352602084013591508082111561244f57600080fd5b61245b858386016122f6565b6020840152604084013591508082111561247457600080fd5b61248085838601611eb3565b6040840152606084013591508082111561249957600080fd5b506124a684828501611eb3565b60608301525092915050565b600080600080600080600060e0888a0312156124cd57600080fd5b6124d688611bc9565b965060208801356124e681611be6565b955060408801356124f681611be6565b9450606088013561250681611be6565b93506080880135925060a088013563ffffffff8116811461252657600080fd5b915060c088013567ffffffffffffffff81111561254257600080fd5b61254e8a828b016123f9565b91505092959891949750929550565b60006020828403121561256f57600080fd5b813567ffffffffffffffff8082111561258757600080fd5b908301906060828603121561259b57600080fd5b6125a3611e37565b82356125ae81611be6565b815260208301356125be81611be6565b60208201526040830135828111156125d557600080fd5b6125e1878286016123f9565b60408301525095945050505050565b8051611be181611be6565b8051611be181612068565b60005b83811015612621578181015183820152602001612609565b50506000910152565b600082601f83011261263b57600080fd5b8151612649611ed282611e8b565b81815284602083860101111561265e57600080fd5b61266f826020830160208701612606565b949350505050565b600082601f83011261268857600080fd5b81516020612698611ed283612044565b82815260059290921b840181019181810190868411156126b757600080fd5b8286015b8481101561217857805167ffffffffffffffff808211156126dc5760008081fd5b9088019060a0828b03601f19018113156126f65760008081fd5b6126fe611d81565b8784015161270b81611be6565b808252506040808501518983015260608086015182840152608091508186015161273481612068565b9083015291840151918383111561274b5760008081fd5b6127598d8a8588010161262a565b9082015286525050509183019183016126bb565b600060e0828403121561277f57600080fd5b612787611daa565b9050612792826125f0565b8152602082015167ffffffffffffffff8111156127ae57600080fd5b6127ba84828501612677565b6020830152506127cc604083016125f0565b6040820152606082015160608201526080820151608082015260a082015160a082015261221160c083016125fb565b600060c0828403121561280d57600080fd5b612815611dcd565b9050815167ffffffffffffffff81111561282e57600080fd5b8201601f8101841361283f57600080fd5b8051602061284f611ed283612044565b82815260059290921b8301810191818101908784111561286e57600080fd5b938201935b8385101561288c57845182529382019390820190612873565b8552508481015190840152505060408083015190820152606080830151908201526128b9608083016125f0565b60808201526122eb60a083016125f0565b60006101a082840312156128dd57600080fd5b6128e5611df0565b9050815181526128f7602083016125f0565b602082015260408201516040820152606082015160608201526080820151608082015261292660a083016125fb565b60a082015261293760c083016125f0565b60c082015261294860e083016125f0565b60e0820152610100828101519082015261012080830151908201526101408083015167ffffffffffffffff8082111561298057600080fd5b61298c868387016127fb565b838501526101609250828501519150808211156129a857600080fd5b506129b585828601612677565b82840152505061018080830151818301525092915050565b6000602082840312156129df57600080fd5b815167ffffffffffffffff808211156129f757600080fd5b9083019060608286031215612a0b57600080fd5b612a13611e37565b8251612a1e81611be6565b81526020830151612a2e81611be6565b6020820152604083015182811115612a4557600080fd5b929092019160808387031215612a5a57600080fd5b612a62611e14565b835183811115612a7157600080fd5b612a7d8882870161276d565b825250602084015183811115612a9257600080fd5b612a9e888287016128ca565b602083015250604084015183811115612ab657600080fd5b612ac28882870161262a565b604083015250606084015183811115612ada57600080fd5b612ae68882870161262a565b606083015250604082015295945050505050565b60008151808452612b12816020860160208601612606565b601f01601f19169290920160200192915050565b600081518084526020808501808196508360051b8101915082860160005b85811015612bae578284038952815180516001600160a01b0316855285810151868601526040808201519086015260608082015160ff169086015260809081015160a091860182905290612b9a81870183612afa565b9a87019a9550505090840190600101612b44565b5091979650505050505050565b60006001600160a01b03808351168452602083015160e06020860152612be460e0860182612b26565b9050816040850151166040860152606084015160608601526080840151608086015260a084015160a086015260ff60c08501511660c0860152809250505092915050565b805160c080845281519084018190526000916020919082019060e0860190845b81811015612c6457835183529284019291840191600101612c48565b50508285015183870152604085015160408701526060850151606087015260808501519250612c9e60808701846001600160a01b03169052565b60a0850151925061049760a08701846001600160a01b03169052565b60006101a0825184526020830151612cdd60208601826001600160a01b03169052565b5060408301516040850152606083015160608501526080830151608085015260a0830151612d1060a086018260ff169052565b5060c0830151612d2b60c08601826001600160a01b03169052565b5060e0830151612d4660e08601826001600160a01b03169052565b506101008381015190850152610120808401519085015261014080840151818601839052612d7683870182612c28565b925050506101608084015185830382870152612d928382612b26565b61018095860151969095019590955250919392505050565b608081526000612dbd6080830187612bbb565b8281036020840152612dcf8187612cba565b90508281036040840152612de38186612afa565b90508281036060840152611b3c8185612afa565b634e487b7160e01b600052603260045260246000fd5b634e487b7160e01b600052601160045260246000fd5b600060018201612e3557612e35612e0d565b5060010190565b81810381811115612e4f57612e4f612e0d565b92915050565b67ffffffffffffffff818116838216019080821115612e7657612e76612e0d565b5092915050565b6020815260006001600160a01b038084511660208401528060208501511660408401525060408301516060808401528051608080850152612ec2610100850182612bbb565b90506020820151607f19808684030160a0870152612ee08383612cba565b925060408401519150808684030160c0870152612efd8383612afa565b925060608401519350808684030160e087015250506104978183612afa565b600060208284031215612f2e57600080fd5b5051919050565b60006001600160a01b03808816835267ffffffffffffffff8716602084015280861660408401525083606083015260a06080830152611b3c60a0830184612afa565b600060208284031215612f8957600080fd5b8151801515811461185057600080fd5b600060208284031215612fab57600080fd5b815161185081611be6565b80820180821115612e4f57612e4f612e0d565b60008251612fdb818460208701612606565b9190910192915050565b6020815260006118506020830184612afa56fea26469706673582212207b2631804acaffdde4976c65cd5fc0d9488c87d2099bc53940dee9e38e4b67d164736f6c63430008100033",
  "devdoc": {
    "kind": "dev",
    "methods": {
      "executeMessage(address,uint64,bytes,address)": {
        "params": {
          "_executor": "Address who called the MessageBus execution function",
          "_message": "Arbitrary message bytes originated from and encoded by the source app contract",
          "_sender": "The address of the source app contract",
          "_srcChainId": "The source chain ID where the transfer is originated from"
        }
      },
      "executeMessageWithTransfer(address,address,uint256,uint64,bytes,address)": {
        "params": {
          "amount": "The amount of the transfer",
          "dstToken": "the token used on destination chain",
          "message": "packed PurchaseRequest"
        }
      },
      "executeMessageWithTransferFallback(address,address,uint256,uint64,bytes,address)": {
        "params": {
          "amount": "The amount of the transfer",
          "message": "packed PurchaseRequest",
          "token": "the token used on destination chain"
        }
      },
      "executeMessageWithTransferRefund(address,uint256,bytes,address)": {
        "params": {
          "amount": "The amount of the transfer",
          "message": "packed PurchaseRequest",
          "token": "the token used on source chain"
        }
      },
      "owner()": {
        "details": "Returns the address of the current owner."
      },
      "purchase(uint64,address,address,address,uint256,uint32,((address,(address,uint256,uint256,uint8,bytes)[],address,uint256,uint256,bytes32,uint8),(bytes32,address,uint256,bytes32,uint256,uint8,address,address,uint256,uint256,(uint256[],uint256,uint256,uint256,address,address),(address,uint256,uint256,uint8,bytes)[],uint256),bytes,bytes))": {
        "params": {
          "amount": "The amount of the transfer",
          "dstChainId": "the destination chain to purchase NFT on",
          "dstCrossChainEndpoint": "the CrossChainEndpoint contract on the destination chain",
          "maxSlippage": "The max slippage accepted, given as percentage in point (pip). Eg. 5000 means 0.5%.",
          "order": "input order, accquired from the Tofu backend server",
          "receiver": "the address on destination chain to receive target NFT",
          "srcToken": "The address of the transfer token."
        }
      },
      "renounceOwnership()": {
        "details": "Leaves the contract without owner. It will not be possible to call `onlyOwner` functions anymore. Can only be called by the current owner. NOTE: Renouncing ownership will leave the contract without an owner, thereby removing any functionality that is only available to the owner."
      },
      "transferOwnership(address)": {
        "details": "Transfers ownership of the contract to a new account (`newOwner`). Can only be called by the current owner."
      }
    },
    "version": 1
  },
  "userdoc": {
    "kind": "user",
    "methods": {
      "executeMessage(address,uint64,bytes,address)": {
        "notice": "Called by MessageBus (MessageBusReceiver)"
      },
      "executeMessageWithTransfer(address,address,uint256,uint64,bytes,address)": {
        "notice": "called by executor on the dst chain to execute the NFT purchase"
      },
      "executeMessageWithTransferFallback(address,address,uint256,uint64,bytes,address)": {
        "notice": "called only if handleMessageWithTransfer was reverted (etc, NFT sold out)"
      },
      "executeMessageWithTransferRefund(address,uint256,bytes,address)": {
        "notice": "called on source chain for handling of bridge failures (bad liquidity, bad slippage, etc...)"
      },
      "purchase(uint64,address,address,address,uint256,uint32,((address,(address,uint256,uint256,uint8,bytes)[],address,uint256,uint256,bytes32,uint8),(bytes32,address,uint256,bytes32,uint256,uint8,address,address,uint256,uint256,(uint256[],uint256,uint256,uint256,address,address),(address,uint256,uint256,uint8,bytes)[],uint256),bytes,bytes))": {
        "notice": "initiates a cross-chain call the the _chainId chain"
      }
    },
    "version": 1
  },
  "storageLayout": {
    "storage": [
      {
        "astId": 7,
        "contract": "contracts/CrossChainEndpoint.sol:CrossChainEndpoint",
        "label": "_owner",
        "offset": 0,
        "slot": "0",
        "type": "t_address"
      },
      {
        "astId": 2174,
        "contract": "contracts/CrossChainEndpoint.sol:CrossChainEndpoint",
        "label": "messageBus",
        "offset": 0,
        "slot": "1",
        "type": "t_address"
      },
      {
        "astId": 1099,
        "contract": "contracts/CrossChainEndpoint.sol:CrossChainEndpoint",
        "label": "marketNG",
        "offset": 0,
        "slot": "2",
        "type": "t_address"
      },
      {
        "astId": 1101,
        "contract": "contracts/CrossChainEndpoint.sol:CrossChainEndpoint",
        "label": "nonce",
        "offset": 20,
        "slot": "2",
        "type": "t_uint64"
      }
    ],
    "types": {
      "t_address": {
        "encoding": "inplace",
        "label": "address",
        "numberOfBytes": "20"
      },
      "t_uint64": {
        "encoding": "inplace",
        "label": "uint64",
        "numberOfBytes": "8"
      }
    }
  }
}